{
  "_format": "hh-sol-artifact-1",
  "contractName": "NFT",
  "sourceName": "contracts/NFT.sol",
  "abi": [
    {
      "inputs": [],
      "stateMutability": "nonpayable",
      "type": "constructor"
    },
    {
      "inputs": [
        {
          "internalType": "address",
          "name": "operator",
          "type": "address"
        }
      ],
      "name": "OperatorNotAllowed",
      "type": "error"
    },
    {
      "anonymous": false,
      "inputs": [
        {
          "indexed": true,
          "internalType": "address",
          "name": "owner",
          "type": "address"
        },
        {
          "indexed": true,
          "internalType": "address",
          "name": "approved",
          "type": "address"
        },
        {
          "indexed": true,
          "internalType": "uint256",
          "name": "tokenId",
          "type": "uint256"
        }
      ],
      "name": "Approval",
      "type": "event"
    },
    {
      "anonymous": false,
      "inputs": [
        {
          "indexed": true,
          "internalType": "address",
          "name": "owner",
          "type": "address"
        },
        {
          "indexed": true,
          "internalType": "address",
          "name": "operator",
          "type": "address"
        },
        {
          "indexed": false,
          "internalType": "bool",
          "name": "approved",
          "type": "bool"
        }
      ],
      "name": "ApprovalForAll",
      "type": "event"
    },
    {
      "anonymous": false,
      "inputs": [
        {
          "indexed": true,
          "internalType": "address",
          "name": "from",
          "type": "address"
        },
        {
          "indexed": true,
          "internalType": "address",
          "name": "to",
          "type": "address"
        },
        {
          "indexed": true,
          "internalType": "uint256",
          "name": "tokenId",
          "type": "uint256"
        }
      ],
      "name": "Transfer",
      "type": "event"
    },
    {
      "inputs": [],
      "name": "OPERATOR_FILTER_REGISTRY",
      "outputs": [
        {
          "internalType": "contract IOperatorFilterRegistry",
          "name": "",
          "type": "address"
        }
      ],
      "stateMutability": "view",
      "type": "function"
    },
    {
      "inputs": [
        {
          "internalType": "address",
          "name": "operator",
          "type": "address"
        },
        {
          "internalType": "uint256",
          "name": "tokenId",
          "type": "uint256"
        }
      ],
      "name": "approve",
      "outputs": [],
      "stateMutability": "nonpayable",
      "type": "function"
    },
    {
      "inputs": [
        {
          "internalType": "address",
          "name": "owner",
          "type": "address"
        }
      ],
      "name": "balanceOf",
      "outputs": [
        {
          "internalType": "uint256",
          "name": "",
          "type": "uint256"
        }
      ],
      "stateMutability": "view",
      "type": "function"
    },
    {
      "inputs": [
        {
          "internalType": "uint256",
          "name": "tokenId",
          "type": "uint256"
        }
      ],
      "name": "getApproved",
      "outputs": [
        {
          "internalType": "address",
          "name": "",
          "type": "address"
        }
      ],
      "stateMutability": "view",
      "type": "function"
    },
    {
      "inputs": [
        {
          "internalType": "address",
          "name": "owner",
          "type": "address"
        },
        {
          "internalType": "address",
          "name": "operator",
          "type": "address"
        }
      ],
      "name": "isApprovedForAll",
      "outputs": [
        {
          "internalType": "bool",
          "name": "",
          "type": "bool"
        }
      ],
      "stateMutability": "view",
      "type": "function"
    },
    {
      "inputs": [
        {
          "internalType": "address",
          "name": "recipient",
          "type": "address"
        }
      ],
      "name": "mintTo",
      "outputs": [
        {
          "internalType": "uint256",
          "name": "",
          "type": "uint256"
        }
      ],
      "stateMutability": "nonpayable",
      "type": "function"
    },
    {
      "inputs": [],
      "name": "name",
      "outputs": [
        {
          "internalType": "string",
          "name": "",
          "type": "string"
        }
      ],
      "stateMutability": "view",
      "type": "function"
    },
    {
      "inputs": [
        {
          "internalType": "uint256",
          "name": "tokenId",
          "type": "uint256"
        }
      ],
      "name": "ownerOf",
      "outputs": [
        {
          "internalType": "address",
          "name": "",
          "type": "address"
        }
      ],
      "stateMutability": "view",
      "type": "function"
    },
    {
      "inputs": [
        {
          "internalType": "address",
          "name": "from",
          "type": "address"
        },
        {
          "internalType": "address",
          "name": "to",
          "type": "address"
        },
        {
          "internalType": "uint256",
          "name": "tokenId",
          "type": "uint256"
        }
      ],
      "name": "safeTransferFrom",
      "outputs": [],
      "stateMutability": "nonpayable",
      "type": "function"
    },
    {
      "inputs": [
        {
          "internalType": "address",
          "name": "from",
          "type": "address"
        },
        {
          "internalType": "address",
          "name": "to",
          "type": "address"
        },
        {
          "internalType": "uint256",
          "name": "tokenId",
          "type": "uint256"
        },
        {
          "internalType": "bytes",
          "name": "data",
          "type": "bytes"
        }
      ],
      "name": "safeTransferFrom",
      "outputs": [],
      "stateMutability": "nonpayable",
      "type": "function"
    },
    {
      "inputs": [
        {
          "internalType": "address",
          "name": "operator",
          "type": "address"
        },
        {
          "internalType": "bool",
          "name": "approved",
          "type": "bool"
        }
      ],
      "name": "setApprovalForAll",
      "outputs": [],
      "stateMutability": "nonpayable",
      "type": "function"
    },
    {
      "inputs": [
        {
          "internalType": "bytes4",
          "name": "interfaceId",
          "type": "bytes4"
        }
      ],
      "name": "supportsInterface",
      "outputs": [
        {
          "internalType": "bool",
          "name": "",
          "type": "bool"
        }
      ],
      "stateMutability": "view",
      "type": "function"
    },
    {
      "inputs": [],
      "name": "symbol",
      "outputs": [
        {
          "internalType": "string",
          "name": "",
          "type": "string"
        }
      ],
      "stateMutability": "view",
      "type": "function"
    },
    {
      "inputs": [
        {
          "internalType": "uint256",
          "name": "tokenId",
          "type": "uint256"
        }
      ],
      "name": "tokenURI",
      "outputs": [
        {
          "internalType": "string",
          "name": "",
          "type": "string"
        }
      ],
      "stateMutability": "view",
      "type": "function"
    },
    {
      "inputs": [
        {
          "internalType": "address",
          "name": "from",
          "type": "address"
        },
        {
          "internalType": "address",
          "name": "to",
          "type": "address"
        },
        {
          "internalType": "uint256",
          "name": "tokenId",
          "type": "uint256"
        }
      ],
      "name": "transferFrom",
      "outputs": [],
      "stateMutability": "nonpayable",
      "type": "function"
    }
  ],
  "bytecode": "0x60806040523480156200001157600080fd5b50733cc6cdda760b79bafa08df41ecfa224f810dceb660016040518060400160405280600b81526020017f4e46545475746f7269616c0000000000000000000000000000000000000000008152506040518060400160405280600381526020017f4e465400000000000000000000000000000000000000000000000000000000008152508160009080519060200190620000ad929190620002c6565b508060019080519060200190620000c6929190620002c6565b50505060006daaeb6d7670e522a718067333cd4e73ffffffffffffffffffffffffffffffffffffffff163b1115620002be57801562000184576daaeb6d7670e522a718067333cd4e73ffffffffffffffffffffffffffffffffffffffff16637d3e3dbe30846040518363ffffffff1660e01b81526004016200014a929190620003bb565b600060405180830381600087803b1580156200016557600080fd5b505af11580156200017a573d6000803e3d6000fd5b50505050620002bd565b600073ffffffffffffffffffffffffffffffffffffffff168273ffffffffffffffffffffffffffffffffffffffff16146200023e576daaeb6d7670e522a718067333cd4e73ffffffffffffffffffffffffffffffffffffffff1663a0af290330846040518363ffffffff1660e01b815260040162000204929190620003bb565b600060405180830381600087803b1580156200021f57600080fd5b505af115801562000234573d6000803e3d6000fd5b50505050620002bc565b6daaeb6d7670e522a718067333cd4e73ffffffffffffffffffffffffffffffffffffffff16634420e486306040518263ffffffff1660e01b8152600401620002879190620003e8565b600060405180830381600087803b158015620002a257600080fd5b505af1158015620002b7573d6000803e3d6000fd5b505050505b5b5b505062000469565b828054620002d49062000434565b90600052602060002090601f016020900481019282620002f8576000855562000344565b82601f106200031357805160ff191683800117855562000344565b8280016001018555821562000344579182015b828111156200034357825182559160200191906001019062000326565b5b50905062000353919062000357565b5090565b5b808211156200037257600081600090555060010162000358565b5090565b600073ffffffffffffffffffffffffffffffffffffffff82169050919050565b6000620003a38262000376565b9050919050565b620003b58162000396565b82525050565b6000604082019050620003d26000830185620003aa565b620003e16020830184620003aa565b9392505050565b6000602082019050620003ff6000830184620003aa565b92915050565b7f4e487b7100000000000000000000000000000000000000000000000000000000600052602260045260246000fd5b600060028204905060018216806200044d57607f821691505b60208210810362000463576200046262000405565b5b50919050565b612a4a80620004796000396000f3fe608060405234801561001057600080fd5b50600436106100f55760003560e01c80636352211e11610097578063a22cb46511610066578063a22cb46514610298578063b88d4fde146102b4578063c87b56dd146102d0578063e985e9c514610300576100f5565b80636352211e146101ea57806370a082311461021a578063755edd171461024a57806395d89b411461027a576100f5565b8063095ea7b3116100d3578063095ea7b31461017857806323b872dd1461019457806341f43434146101b057806342842e0e146101ce576100f5565b806301ffc9a7146100fa57806306fdde031461012a578063081812fc14610148575b600080fd5b610114600480360381019061010f9190611b9f565b610330565b6040516101219190611be7565b60405180910390f35b610132610412565b60405161013f9190611c9b565b60405180910390f35b610162600480360381019061015d9190611cf3565b6104a4565b60405161016f9190611d61565b60405180910390f35b610192600480360381019061018d9190611da8565b6104ea565b005b6101ae60048036038101906101a99190611de8565b610503565b005b6101b8610552565b6040516101c59190611e9a565b60405180910390f35b6101e860048036038101906101e39190611de8565b610564565b005b61020460048036038101906101ff9190611cf3565b6105b3565b6040516102119190611d61565b60405180910390f35b610234600480360381019061022f9190611eb5565b610639565b6040516102419190611ef1565b60405180910390f35b610264600480360381019061025f9190611eb5565b6106f0565b6040516102719190611ef1565b60405180910390f35b61028261071d565b60405161028f9190611c9b565b60405180910390f35b6102b260048036038101906102ad9190611f38565b6107af565b005b6102ce60048036038101906102c991906120ad565b6107c8565b005b6102ea60048036038101906102e59190611cf3565b610819565b6040516102f79190611c9b565b60405180910390f35b61031a60048036038101906103159190612130565b610881565b6040516103279190611be7565b60405180910390f35b60007f80ac58cd000000000000000000000000000000000000000000000000000000007bffffffffffffffffffffffffffffffffffffffffffffffffffffffff1916827bffffffffffffffffffffffffffffffffffffffffffffffffffffffff191614806103fb57507f5b5e139f000000000000000000000000000000000000000000000000000000007bffffffffffffffffffffffffffffffffffffffffffffffffffffffff1916827bffffffffffffffffffffffffffffffffffffffffffffffffffffffff1916145b8061040b575061040a82610915565b5b9050919050565b6060600080546104219061219f565b80601f016020809104026020016040519081016040528092919081815260200182805461044d9061219f565b801561049a5780601f1061046f5761010080835404028352916020019161049a565b820191906000526020600020905b81548152906001019060200180831161047d57829003601f168201915b5050505050905090565b60006104af8261097f565b6004600083815260200190815260200160002060009054906101000a900473ffffffffffffffffffffffffffffffffffffffff169050919050565b816104f4816109ca565b6104fe8383610ac7565b505050565b823373ffffffffffffffffffffffffffffffffffffffff168173ffffffffffffffffffffffffffffffffffffffff161461054157610540336109ca565b5b61054c848484610bde565b50505050565b6daaeb6d7670e522a718067333cd4e81565b823373ffffffffffffffffffffffffffffffffffffffff168173ffffffffffffffffffffffffffffffffffffffff16146105a2576105a1336109ca565b5b6105ad848484610c3e565b50505050565b6000806105bf83610c5e565b9050600073ffffffffffffffffffffffffffffffffffffffff168173ffffffffffffffffffffffffffffffffffffffff1603610630576040517f08c379a00000000000000000000000000000000000000000000000000000000081526004016106279061221c565b60405180910390fd5b80915050919050565b60008073ffffffffffffffffffffffffffffffffffffffff168273ffffffffffffffffffffffffffffffffffffffff16036106a9576040517f08c379a00000000000000000000000000000000000000000000000000000000081526004016106a0906122ae565b60405180910390fd5b600360008373ffffffffffffffffffffffffffffffffffffffff1673ffffffffffffffffffffffffffffffffffffffff168152602001908152602001600020549050919050565b60006106fc6006610c9b565b60006107086006610cb1565b90506107148382610cbf565b80915050919050565b60606001805461072c9061219f565b80601f01602080910402602001604051908101604052809291908181526020018280546107589061219f565b80156107a55780601f1061077a576101008083540402835291602001916107a5565b820191906000526020600020905b81548152906001019060200180831161078857829003601f168201915b5050505050905090565b816107b9816109ca565b6107c38383610cdd565b505050565b833373ffffffffffffffffffffffffffffffffffffffff168173ffffffffffffffffffffffffffffffffffffffff161461080657610805336109ca565b5b61081285858585610cf3565b5050505050565b60606108248261097f565b600061082e610d55565b9050600081511161084e5760405180602001604052806000815250610879565b8061085884610d6c565b60405160200161086992919061230a565b6040516020818303038152906040525b915050919050565b6000600560008473ffffffffffffffffffffffffffffffffffffffff1673ffffffffffffffffffffffffffffffffffffffff16815260200190815260200160002060008373ffffffffffffffffffffffffffffffffffffffff1673ffffffffffffffffffffffffffffffffffffffff16815260200190815260200160002060009054906101000a900460ff16905092915050565b60007f01ffc9a7000000000000000000000000000000000000000000000000000000007bffffffffffffffffffffffffffffffffffffffffffffffffffffffff1916827bffffffffffffffffffffffffffffffffffffffffffffffffffffffff1916149050919050565b61098881610e3a565b6109c7576040517f08c379a00000000000000000000000000000000000000000000000000000000081526004016109be9061221c565b60405180910390fd5b50565b60006daaeb6d7670e522a718067333cd4e73ffffffffffffffffffffffffffffffffffffffff163b1115610ac4576daaeb6d7670e522a718067333cd4e73ffffffffffffffffffffffffffffffffffffffff1663c617113430836040518363ffffffff1660e01b8152600401610a4192919061232e565b602060405180830381865afa158015610a5e573d6000803e3d6000fd5b505050506040513d601f19601f82011682018060405250810190610a82919061236c565b610ac357806040517fede71dcc000000000000000000000000000000000000000000000000000000008152600401610aba9190611d61565b60405180910390fd5b5b50565b6000610ad2826105b3565b90508073ffffffffffffffffffffffffffffffffffffffff168373ffffffffffffffffffffffffffffffffffffffff1603610b42576040517f08c379a0000000000000000000000000000000000000000000000000000000008152600401610b399061240b565b60405180910390fd5b8073ffffffffffffffffffffffffffffffffffffffff16610b61610e7b565b73ffffffffffffffffffffffffffffffffffffffff161480610b905750610b8f81610b8a610e7b565b610881565b5b610bcf576040517f08c379a0000000000000000000000000000000000000000000000000000000008152600401610bc69061249d565b60405180910390fd5b610bd98383610e83565b505050565b610bef610be9610e7b565b82610f3c565b610c2e576040517f08c379a0000000000000000000000000000000000000000000000000000000008152600401610c259061252f565b60405180910390fd5b610c39838383610fd1565b505050565b610c59838383604051806020016040528060008152506107c8565b505050565b60006002600083815260200190815260200160002060009054906101000a900473ffffffffffffffffffffffffffffffffffffffff169050919050565b6001816000016000828254019250508190555050565b600081600001549050919050565b610cd98282604051806020016040528060008152506112ca565b5050565b610cef610ce8610e7b565b8383611325565b5050565b610d04610cfe610e7b565b83610f3c565b610d43576040517f08c379a0000000000000000000000000000000000000000000000000000000008152600401610d3a9061252f565b60405180910390fd5b610d4f84848484611491565b50505050565b606060405180602001604052806000815250905090565b606060006001610d7b846114ed565b01905060008167ffffffffffffffff811115610d9a57610d99611f82565b5b6040519080825280601f01601f191660200182016040528015610dcc5781602001600182028036833780820191505090505b509050600082602001820190505b600115610e2f578080600190039150507f3031323334353637383961626364656600000000000000000000000000000000600a86061a8153600a8581610e2357610e2261254f565b5b04945060008503610dda575b819350505050919050565b60008073ffffffffffffffffffffffffffffffffffffffff16610e5c83610c5e565b73ffffffffffffffffffffffffffffffffffffffff1614159050919050565b600033905090565b816004600083815260200190815260200160002060006101000a81548173ffffffffffffffffffffffffffffffffffffffff021916908373ffffffffffffffffffffffffffffffffffffffff160217905550808273ffffffffffffffffffffffffffffffffffffffff16610ef6836105b3565b73ffffffffffffffffffffffffffffffffffffffff167f8c5be1e5ebec7d5bd14f71427d1e84f3dd0314c0f7b2291e5b200ac8c7c3b92560405160405180910390a45050565b600080610f48836105b3565b90508073ffffffffffffffffffffffffffffffffffffffff168473ffffffffffffffffffffffffffffffffffffffff161480610f8a5750610f898185610881565b5b80610fc857508373ffffffffffffffffffffffffffffffffffffffff16610fb0846104a4565b73ffffffffffffffffffffffffffffffffffffffff16145b91505092915050565b8273ffffffffffffffffffffffffffffffffffffffff16610ff1826105b3565b73ffffffffffffffffffffffffffffffffffffffff1614611047576040517f08c379a000000000000000000000000000000000000000000000000000000000815260040161103e906125f0565b60405180910390fd5b600073ffffffffffffffffffffffffffffffffffffffff168273ffffffffffffffffffffffffffffffffffffffff16036110b6576040517f08c379a00000000000000000000000000000000000000000000000000000000081526004016110ad90612682565b60405180910390fd5b6110c38383836001611640565b8273ffffffffffffffffffffffffffffffffffffffff166110e3826105b3565b73ffffffffffffffffffffffffffffffffffffffff1614611139576040517f08c379a0000000000000000000000000000000000000000000000000000000008152600401611130906125f0565b60405180910390fd5b6004600082815260200190815260200160002060006101000a81549073ffffffffffffffffffffffffffffffffffffffff02191690556001600360008573ffffffffffffffffffffffffffffffffffffffff1673ffffffffffffffffffffffffffffffffffffffff168152602001908152602001600020600082825403925050819055506001600360008473ffffffffffffffffffffffffffffffffffffffff1673ffffffffffffffffffffffffffffffffffffffff16815260200190815260200160002060008282540192505081905550816002600083815260200190815260200160002060006101000a81548173ffffffffffffffffffffffffffffffffffffffff021916908373ffffffffffffffffffffffffffffffffffffffff160217905550808273ffffffffffffffffffffffffffffffffffffffff168473ffffffffffffffffffffffffffffffffffffffff167fddf252ad1be2c89b69c2b068fc378daa952ba7f163c4a11628f55a4df523b3ef60405160405180910390a46112c58383836001611766565b505050565b6112d4838361176c565b6112e16000848484611989565b611320576040517f08c379a000000000000000000000000000000000000000000000000000000000815260040161131790612714565b60405180910390fd5b505050565b8173ffffffffffffffffffffffffffffffffffffffff168373ffffffffffffffffffffffffffffffffffffffff1603611393576040517f08c379a000000000000000000000000000000000000000000000000000000000815260040161138a90612780565b60405180910390fd5b80600560008573ffffffffffffffffffffffffffffffffffffffff1673ffffffffffffffffffffffffffffffffffffffff16815260200190815260200160002060008473ffffffffffffffffffffffffffffffffffffffff1673ffffffffffffffffffffffffffffffffffffffff16815260200190815260200160002060006101000a81548160ff0219169083151502179055508173ffffffffffffffffffffffffffffffffffffffff168373ffffffffffffffffffffffffffffffffffffffff167f17307eab39ab6107e8899845ad3d59bd9653f200f220920489ca2b5937696c31836040516114849190611be7565b60405180910390a3505050565b61149c848484610fd1565b6114a884848484611989565b6114e7576040517f08c379a00000000000000000000000000000000000000000000000000000000081526004016114de90612714565b60405180910390fd5b50505050565b600080600090507a184f03e93ff9f4daa797ed6e38ed64bf6a1f010000000000000000831061154b577a184f03e93ff9f4daa797ed6e38ed64bf6a1f01000000000000000083816115415761154061254f565b5b0492506040810190505b6d04ee2d6d415b85acef81000000008310611588576d04ee2d6d415b85acef8100000000838161157e5761157d61254f565b5b0492506020810190505b662386f26fc1000083106115b757662386f26fc1000083816115ad576115ac61254f565b5b0492506010810190505b6305f5e10083106115e0576305f5e10083816115d6576115d561254f565b5b0492506008810190505b61271083106116055761271083816115fb576115fa61254f565b5b0492506004810190505b60648310611628576064838161161e5761161d61254f565b5b0492506002810190505b600a8310611637576001810190505b80915050919050565b600181111561176057600073ffffffffffffffffffffffffffffffffffffffff168473ffffffffffffffffffffffffffffffffffffffff16146116d45780600360008673ffffffffffffffffffffffffffffffffffffffff1673ffffffffffffffffffffffffffffffffffffffff16815260200190815260200160002060008282546116cc91906127cf565b925050819055505b600073ffffffffffffffffffffffffffffffffffffffff168373ffffffffffffffffffffffffffffffffffffffff161461175f5780600360008573ffffffffffffffffffffffffffffffffffffffff1673ffffffffffffffffffffffffffffffffffffffff16815260200190815260200160002060008282546117579190612803565b925050819055505b5b50505050565b50505050565b600073ffffffffffffffffffffffffffffffffffffffff168273ffffffffffffffffffffffffffffffffffffffff16036117db576040517f08c379a00000000000000000000000000000000000000000000000000000000081526004016117d2906128a5565b60405180910390fd5b6117e481610e3a565b15611824576040517f08c379a000000000000000000000000000000000000000000000000000000000815260040161181b90612911565b60405180910390fd5b611832600083836001611640565b61183b81610e3a565b1561187b576040517f08c379a000000000000000000000000000000000000000000000000000000000815260040161187290612911565b60405180910390fd5b6001600360008473ffffffffffffffffffffffffffffffffffffffff1673ffffffffffffffffffffffffffffffffffffffff16815260200190815260200160002060008282540192505081905550816002600083815260200190815260200160002060006101000a81548173ffffffffffffffffffffffffffffffffffffffff021916908373ffffffffffffffffffffffffffffffffffffffff160217905550808273ffffffffffffffffffffffffffffffffffffffff16600073ffffffffffffffffffffffffffffffffffffffff167fddf252ad1be2c89b69c2b068fc378daa952ba7f163c4a11628f55a4df523b3ef60405160405180910390a4611985600083836001611766565b5050565b60006119aa8473ffffffffffffffffffffffffffffffffffffffff16611b10565b15611b03578373ffffffffffffffffffffffffffffffffffffffff1663150b7a026119d3610e7b565b8786866040518563ffffffff1660e01b81526004016119f59493929190612986565b6020604051808303816000875af1925050508015611a3157506040513d601f19601f82011682018060405250810190611a2e91906129e7565b60015b611ab3573d8060008114611a61576040519150601f19603f3d011682016040523d82523d6000602084013e611a66565b606091505b506000815103611aab576040517f08c379a0000000000000000000000000000000000000000000000000000000008152600401611aa290612714565b60405180910390fd5b805181602001fd5b63150b7a0260e01b7bffffffffffffffffffffffffffffffffffffffffffffffffffffffff1916817bffffffffffffffffffffffffffffffffffffffffffffffffffffffff191614915050611b08565b600190505b949350505050565b6000808273ffffffffffffffffffffffffffffffffffffffff163b119050919050565b6000604051905090565b600080fd5b600080fd5b60007fffffffff0000000000000000000000000000000000000000000000000000000082169050919050565b611b7c81611b47565b8114611b8757600080fd5b50565b600081359050611b9981611b73565b92915050565b600060208284031215611bb557611bb4611b3d565b5b6000611bc384828501611b8a565b91505092915050565b60008115159050919050565b611be181611bcc565b82525050565b6000602082019050611bfc6000830184611bd8565b92915050565b600081519050919050565b600082825260208201905092915050565b60005b83811015611c3c578082015181840152602081019050611c21565b83811115611c4b576000848401525b50505050565b6000601f19601f8301169050919050565b6000611c6d82611c02565b611c778185611c0d565b9350611c87818560208601611c1e565b611c9081611c51565b840191505092915050565b60006020820190508181036000830152611cb58184611c62565b905092915050565b6000819050919050565b611cd081611cbd565b8114611cdb57600080fd5b50565b600081359050611ced81611cc7565b92915050565b600060208284031215611d0957611d08611b3d565b5b6000611d1784828501611cde565b91505092915050565b600073ffffffffffffffffffffffffffffffffffffffff82169050919050565b6000611d4b82611d20565b9050919050565b611d5b81611d40565b82525050565b6000602082019050611d766000830184611d52565b92915050565b611d8581611d40565b8114611d9057600080fd5b50565b600081359050611da281611d7c565b92915050565b60008060408385031215611dbf57611dbe611b3d565b5b6000611dcd85828601611d93565b9250506020611dde85828601611cde565b9150509250929050565b600080600060608486031215611e0157611e00611b3d565b5b6000611e0f86828701611d93565b9350506020611e2086828701611d93565b9250506040611e3186828701611cde565b9150509250925092565b6000819050919050565b6000611e60611e5b611e5684611d20565b611e3b565b611d20565b9050919050565b6000611e7282611e45565b9050919050565b6000611e8482611e67565b9050919050565b611e9481611e79565b82525050565b6000602082019050611eaf6000830184611e8b565b92915050565b600060208284031215611ecb57611eca611b3d565b5b6000611ed984828501611d93565b91505092915050565b611eeb81611cbd565b82525050565b6000602082019050611f066000830184611ee2565b92915050565b611f1581611bcc565b8114611f2057600080fd5b50565b600081359050611f3281611f0c565b92915050565b60008060408385031215611f4f57611f4e611b3d565b5b6000611f5d85828601611d93565b9250506020611f6e85828601611f23565b9150509250929050565b600080fd5b600080fd5b7f4e487b7100000000000000000000000000000000000000000000000000000000600052604160045260246000fd5b611fba82611c51565b810181811067ffffffffffffffff82111715611fd957611fd8611f82565b5b80604052505050565b6000611fec611b33565b9050611ff88282611fb1565b919050565b600067ffffffffffffffff82111561201857612017611f82565b5b61202182611c51565b9050602081019050919050565b82818337600083830152505050565b600061205061204b84611ffd565b611fe2565b90508281526020810184848401111561206c5761206b611f7d565b5b61207784828561202e565b509392505050565b600082601f83011261209457612093611f78565b5b81356120a484826020860161203d565b91505092915050565b600080600080608085870312156120c7576120c6611b3d565b5b60006120d587828801611d93565b94505060206120e687828801611d93565b93505060406120f787828801611cde565b925050606085013567ffffffffffffffff81111561211857612117611b42565b5b6121248782880161207f565b91505092959194509250565b6000806040838503121561214757612146611b3d565b5b600061215585828601611d93565b925050602061216685828601611d93565b9150509250929050565b7f4e487b7100000000000000000000000000000000000000000000000000000000600052602260045260246000fd5b600060028204905060018216806121b757607f821691505b6020821081036121ca576121c9612170565b5b50919050565b7f4552433732313a20696e76616c696420746f6b656e2049440000000000000000600082015250565b6000612206601883611c0d565b9150612211826121d0565b602082019050919050565b60006020820190508181036000830152612235816121f9565b9050919050565b7f4552433732313a2061646472657373207a65726f206973206e6f74206120766160008201527f6c6964206f776e65720000000000000000000000000000000000000000000000602082015250565b6000612298602983611c0d565b91506122a38261223c565b604082019050919050565b600060208201905081810360008301526122c78161228b565b9050919050565b600081905092915050565b60006122e482611c02565b6122ee81856122ce565b93506122fe818560208601611c1e565b80840191505092915050565b600061231682856122d9565b915061232282846122d9565b91508190509392505050565b60006040820190506123436000830185611d52565b6123506020830184611d52565b9392505050565b60008151905061236681611f0c565b92915050565b60006020828403121561238257612381611b3d565b5b600061239084828501612357565b91505092915050565b7f4552433732313a20617070726f76616c20746f2063757272656e74206f776e6560008201527f7200000000000000000000000000000000000000000000000000000000000000602082015250565b60006123f5602183611c0d565b915061240082612399565b604082019050919050565b60006020820190508181036000830152612424816123e8565b9050919050565b7f4552433732313a20617070726f76652063616c6c6572206973206e6f7420746f60008201527f6b656e206f776e6572206f7220617070726f76656420666f7220616c6c000000602082015250565b6000612487603d83611c0d565b91506124928261242b565b604082019050919050565b600060208201905081810360008301526124b68161247a565b9050919050565b7f4552433732313a2063616c6c6572206973206e6f7420746f6b656e206f776e6560008201527f72206f7220617070726f76656400000000000000000000000000000000000000602082015250565b6000612519602d83611c0d565b9150612524826124bd565b604082019050919050565b600060208201905081810360008301526125488161250c565b9050919050565b7f4e487b7100000000000000000000000000000000000000000000000000000000600052601260045260246000fd5b7f4552433732313a207472616e736665722066726f6d20696e636f72726563742060008201527f6f776e6572000000000000000000000000000000000000000000000000000000602082015250565b60006125da602583611c0d565b91506125e58261257e565b604082019050919050565b60006020820190508181036000830152612609816125cd565b9050919050565b7f4552433732313a207472616e7366657220746f20746865207a65726f2061646460008201527f7265737300000000000000000000000000000000000000000000000000000000602082015250565b600061266c602483611c0d565b915061267782612610565b604082019050919050565b6000602082019050818103600083015261269b8161265f565b9050919050565b7f4552433732313a207472616e7366657220746f206e6f6e20455243373231526560008201527f63656976657220696d706c656d656e7465720000000000000000000000000000602082015250565b60006126fe603283611c0d565b9150612709826126a2565b604082019050919050565b6000602082019050818103600083015261272d816126f1565b9050919050565b7f4552433732313a20617070726f766520746f2063616c6c657200000000000000600082015250565b600061276a601983611c0d565b915061277582612734565b602082019050919050565b600060208201905081810360008301526127998161275d565b9050919050565b7f4e487b7100000000000000000000000000000000000000000000000000000000600052601160045260246000fd5b60006127da82611cbd565b91506127e583611cbd565b9250828210156127f8576127f76127a0565b5b828203905092915050565b600061280e82611cbd565b915061281983611cbd565b9250827fffffffffffffffffffffffffffffffffffffffffffffffffffffffffffffffff0382111561284e5761284d6127a0565b5b828201905092915050565b7f4552433732313a206d696e7420746f20746865207a65726f2061646472657373600082015250565b600061288f602083611c0d565b915061289a82612859565b602082019050919050565b600060208201905081810360008301526128be81612882565b9050919050565b7f4552433732313a20746f6b656e20616c7265616479206d696e74656400000000600082015250565b60006128fb601c83611c0d565b9150612906826128c5565b602082019050919050565b6000602082019050818103600083015261292a816128ee565b9050919050565b600081519050919050565b600082825260208201905092915050565b600061295882612931565b612962818561293c565b9350612972818560208601611c1e565b61297b81611c51565b840191505092915050565b600060808201905061299b6000830187611d52565b6129a86020830186611d52565b6129b56040830185611ee2565b81810360608301526129c7818461294d565b905095945050505050565b6000815190506129e181611b73565b92915050565b6000602082840312156129fd576129fc611b3d565b5b6000612a0b848285016129d2565b9150509291505056fea2646970667358221220fb3b86d08399bc9a9cebfbe684e89c9a2f1372419b1c29c171985566082dac3964736f6c634300080d0033",
  "linkReferences": {},
  "deployedLinkReferences": {}
}